:1040000000080020155E0000415E0000415E0000D7
:10401000415E0000415E0000415E0000415E000024
:10402000415E0000415E0000415E0000415E000014
:10403000415E0000415E0000415E0000415E000004
:10404000354B0000415E0000415E0000415E000013
:10405000415E0000415E0000BD520000F95F0000BB
:10406000415E0000415E0000F1520000415E000030
:1040700075520000415E0000415E0000415E00009C
:10408000415E0000415E0000415E0000415E0000B4
:10409000415E000010B5064C2378002B07D1054B7C
:1040A000002B02D0044800E000BF0123237010BDA4
:1040B00088000020000000000C7D0000044B10B5BB
:1040C000002B03D00349044800E000BF10BDC046E8
:1040D000000000008C0000200C7D000040229202B5
:1040E0009A1A92467047C046174B002B00D1134BCB
:1040F0009D46FFF7F3FF00218B460F461348144AF5
:10410000121A02F0F7FB0E4B002B00D098470D4B14
:10411000002B00D098470020002104000D000D481E
:10412000002802D00C4800E000BF02F099FB2000FC
:10413000290001F0D9F902F08BFAC046000008000E
:10414000000000000000000000080020880000209F
:10415000F0000020000000000000000000B583B067
:1041600000236A4669461370537093701F220B71C7
:10417000CA704B710948002100F058F96B4618715C
:10418000002000F079F96B466A46D870032369462F
:104190000348137000F0DCF803B000BD40420F008C
:1041A0000020004010B50121014800F0FFF910BDCA
:1041B00000A2040010B50021014800F0F7F910BD7D
:1041C00000A2040010B5030004220621032000F021
:1041D000E3FD10BD10B5002300220621032000F0EE
:1041E000DBFD10BD10B584B0FFF7B8FF0922002138
:1041F00001A802F07FFB6A460523134C537120008F
:10420000033301A9137200F0E3F801230122636074
:10421000A3681A42FCD10D4A616A10680002000EC0
:10422000FF280ED0840024186420D36864001B0D7E
:10423000591A48433F211F3001F09EFF001904B076
:1042400010BD0348FBE7C04600200040B081E00FEE
:10425000F0D8FFFF70B584B001ADFFF77FFF0922F2
:104260000021280002F046FB052301260E4C6B704E
:10427000023BEB70290004332000AE702B7100F07C
:10428000A7F801226660A3681A42FCD1626A074956
:1042900053019B1A9800064B80189C46800060448E
:1042A00001F0E0FE04B070BD00200040FFFF000000
:1042B000FF7F000030B5002A06D11E4A00251E4CA3
:1042C000436B904206D030BD1A4A10251B4C436BFD
:1042D0009042F8D1234006290FD8194A8900525834
:1042E00097461849FE200A680968120CC001490265
:1042F0000240490E0A43AA4013430E4A5363E2E7C1
:10430000114A11687F220A40AA401343F5E70D497C
:104310000A680868FE21C9010A407F2101400A435A
:10432000AA401343034A5363CDE70849DAE7074934
:10433000EEE7C046002000408080FFFFFFFF808046
:10434000E8790000B881E00FBC81E00FB481E00F94
:1043500070B50E7905000C001A48002E29D100F026
:104360003BFA194B1949C618300001F07BFE164B79
:10437000B3429B415B42C61A7F2E20D80A23FE21FE
:104380006B606278237812011B061343A278C9037D
:104390001343E278300212040A401343FE22D20192
:1043A000104062790343002A01D0082213432B6096
:1043B00070BD00F011FA034800F00EFADEE77F2628
:1043C000DCE7C046408104003F5DC600405DC6009A
:1043D000022370B50C004360002289780500FFF7C6
:1043E00069FF237862781B0712051343E2781201F4
:1043F0001343227912021343A279002A02D08022A9
:1044000052041343E279002A01D004221343627953
:10441000002A01D002221343227A002A01D001226D
:104420001343A27812041343EB6070BDFA2370B5F6
:10443000DB010400984200D21C000D4B9C4200D9C5
:104440001C0000290ED0651E6D182800210001F007
:1044500009FE0023A5425B41C01A7F2800D97F20B6
:10446000C0B270BD034800F0B7F90100EBE7C046E9
:10447000405DC6004081040010B5002808D0084BFC
:1044800008499C46604401F0EDFD0138C0B210BD02
:10449000054800F0A1F90028F1D10130EFE7C0464E
:1044A0003F420F0040420F0040810400204B5869FA
:1044B000E023DB00184080239B0098422BD00FD9CB
:1044C000C0239B0098421AD01A4B9C466044431E5E
:1044D0009841194B40421840184B9C466044704725
:1044E00000280AD00138FF38431E9841144B40423F
:1044F0001840144B9C466044F1E71348EFE7122044
:10450000124BDB6C1B0E98428041114B1840114B33
:104510009C466044E3E712200C4BDB6C1B0E984278
:1045200080410D4B18400D4B9C466044D7E7C04678
:1045300000800C4000F9FFFFC090BFFE406F4001BB
:10454000402758FFC0D8A700809FD500B081E00F5A
:10455000400D030040420F0080E5F9FFC0CF6A0024
:1045600070B50E4B0E4CE56BE36301F06BFC0D4B2D
:1045700000216268984203D90B4B013198420AD856
:104580000720074A536883430B435360002D01D033
:104590000023D36370BD06311140F1E7711B0000A9
:1045A00000000C400024F4000048E801030530B589
:1045B0001B0F0A2B0DD8194A9B00D3589F46C003E6
:1045C000174CC00E01228240814023689343194357
:1045D000216030BDC003134CC00EF3E7C003124C82
:1045E000C00EEFE7C003114CC00EEBE70125C0037E
:1045F0000F4CC00E0F4A536DDB07E3D4136D1D4201
:10460000FCD1DFE7C00310250B4CC00EF2E780257C
:10461000C0030A4CC00E6D00ECE7C046047A0000EF
:1046200078800C4008800C4044800C4040800C4056
:1046300058800C4000800C4060800C4064800C402E
:104640000F231840072859D8384B80001B589F4625
:1046500007207047364BD86AE023DB0218408023DE
:104660009B02984256D08023DB0298425AD0314BAD
:104670009C466044434258410130EAE780222C4B7B
:104680002D48DB6A92010340934249D038D88022FA
:10469000042012019342DCD0284A944663445A1EF7
:1046A000934158000330D4E70C23214A916A0B4010
:1046B000082B35D00C2B37D0042B2BD08023906ABD
:1046C0005B031840434258410A23404298430C3050
:1046D000BFE73020164B9B6A184010281AD02038AC
:1046E000434258410130B4E70323114A916A0B4019
:1046F000013B022B10D8124AD05CAAE70020A8E7A1
:10470000FC2212069818431E984105234042984304
:104710000B309EE703209CE78023906A5B02D0E782
:10472000022096E70A2094E7062092E7307A0000FC
:1047300000800C400000FFFF003C000400F0FFFF81
:10474000B47A000010B50400FFF77AFF1F4A030097
:1047500094421FD01E4A94420FD11E4A936A1B07EF
:104760009B0F022B23D0032B10D0002B2BD000202B
:10477000012B01D101F0F2FB10BD0128FAD000207D
:10478000012BF9D9022B12D0032BF5D101F0CEFB6E
:104790004008F1E703230F4CA26A1340012BE9D034
:1047A000022108001040114204D0022BEED101F08A
:1047B000DDFBE1E7002BDFD11023A06AD840DBD07E
:1047C00001F0D0FBD8E71423906AF7E702001C0041
:1047D00003001E0000800C40F8239B031840902328
:1047E00010B55B03984252D015D88023DB02984263
:1047F00056D007D9314B9C46314B6044184233D0D8
:10480000002010BD002832D080239B029842F7D1AF
:1048100001F08CFBF5E7F0235B0398422AD017D90F
:1048200090239B039842EBD1E022264BD202DB6A15
:1048300013408022920293423AD08022D2029342C5
:1048400039D0802252029342DAD101F08FFBD8E7AF
:10485000C0235B03984211D0E0235B039842CFD181
:104860001948FFF76FFFCCE7FFF720FEC9E701F01B
:10487000EDFAC6E71548FFF765FFC2E71348FFF7F3
:1048800061FF104B1A6F03231340D840B9E70E485D
:10489000FFF758FF0B4B9A6E0F231340D840B0E739
:1048A00001F0D4FA074B9A680F231340D840A8E7C9
:1048B00001F054FBA5E7064B1868A2E70000F2FFE1
:1048C000FFFFFDFF00800C4002001C0003001E00E3
:1048D0000000002070B50F240440042C0BD018D821
:1048E000012C30D0A31E012B12D80C2910D8704BEC
:1048F00089005B589F4602296AD003294DD00129BF
:1049000006D1002130206B4A936A83430B439362A4
:1049100070BD072CFCD1032949D00A292AD00229CD
:10492000F6D18022634B520063491A6292180B68D9
:104930001342FCD0402380215E4A49025362D36A6D
:104940000B42FCD0E4E70B29E2D85C4B89005B58B2
:104950009F46002200235748816A022C43D012054B
:104960009B001343564A0A4013438362D0E7012257
:104970000023F0E780224F4BD2001A6280224E497A
:10498000D2030B681342FCD080238021494AC9021C
:104990005362D36A0B42FCD0BAE74022454B4649EA
:1049A0001A6240320B681A42FCD01021AAE740225A
:1049B000404B41491A6240320B681A42FCD06023D6
:1049C00080213C4A89025362D36A0B42FCD09FE7A4
:1049D0008022384B520038491A6292180B681342F1
:1049E000FCD020218EE7374C120421400B431A43A0
:1049F00082628DE780222F4B52002F491A62921853
:104A00000B681342FCD000220223A4E704212E4AA3
:104A100013680B431360002203239CE74022254BBD
:104A200025491A6240320B681A42FCD00022012349
:104A300091E70123012502221E490B621E490B68E2
:104A40001342FCD0FFF78CFD1A4B5D6201F06EFA49
:104A50001E4B1F49DA6BD96359681E4B984224D903
:104A60001D4B984201D907240C400721174B586869
:104A7000884304435C60002A00D149E70022DA63DE
:104A800046E7042308220225D6E740238022032597
:104A9000D2E78023802204255B009200CCE78023AC
:104AA00080220525DB00D203C6E70024DDE7C046EF
:104AB000507A000000800C402C800C40847A00006A
:104AC000F3FFEFFFFCFFFEFF40800C4000000C40B6
:104AD000711B00000024F4000048E80110B505280F
:104AE00010D8800000290ED0094BC458094BC1587A
:104AF000094B1962002A05D00122A24007490B6820
:104B00001342FCD010BD064BC258034B1A62F9E7A2
:104B1000B87A0000D07A000000800C402C800C4055
:104B2000E87A0000EFF3108072B67047002800D1D9
:104B300062B67047F8B557464E46DE464546802376
:104B4000E0B51F4F5B01FA581E4B0126FB5813407E
:104B5000BA6B14001C409343994602239A460025E1
:104B6000002C1FD0184B9846264217D032004146E1
:104B7000AA40BB687A502A019B18DB68002B0DD035
:104B80000122197A4A401A721A689346002A05D0FF
:104B90005A684B1E99412800C9B2D84764080135AC
:104BA000002CE1D15346012B03D001234C469A46F9
:104BB000D5E7F0BCBB46B246A946A046F8BDC04604
:104BC00000200C400C10000008100000842370B579
:104BD0000124562080261149114DCA58FF30144037
:104BE000104AF600CA502A68D30A104033400343E3
:104BF0000B620D4B1978052903D01120FFF76AFECF
:104C00002A68D30702D40222044B1A62002C03D074
:104C100084230021014AD15070BDC04600800C4061
:104C2000A40000200E580000A800002010B50028A5
:104C300016D184231C4A1D4CD158D450C90730D4F6
:104C400004211B4A13690B431361FFF76BFF040038
:104C500002F0C2FE2000FFF769FF01F067F910BD06
:104C6000114C144BE26A11201A60FFF7E9FC124B59
:104C70000E4918708423E258E150D20701D5002272
:104C8000E25004210A4A13690B431361FFF74AFFFC
:104C9000040002F0A1FE2000FFF748FFFFF796FF97
:104CA000DDE7D050CCE7C04600800C400E58000035
:104CB00000ED00E0A4000020A80000200C20082146
:104CC0000B4B10B51A6882430A431968014309481F
:104CD000986072B60024084804601A6019601A606F
:104CE00019601A6019601A6019601A6010BDC04618
:104CF00000600C40E8AD0000E4800C40F0B5C64612
:104D000000B51E0007A906AB1B780D78072A28D826
:104D100091008C461A4F07243968884661468C40BA
:104D20004146A1436446A0400843386001219140B8
:104D3000964093401348954004688C433443046084
:104D4000114C2068884318438E2320600F485B0075
:104D5000C1500F4803688B432B43036080BCB846A7
:104D6000F0BD14000727083C0A49A400A7408C4660
:104D7000A0400968B943084361460860D6E7C046C9
:104D800000610040086100400C610040006000408C
:104D90001061004004610040F0B5C646C40098466A
:104DA00000B5002A0AD00126C40025188E40AD00A7
:104DB000002B38D01E4B9C4665442E611C4B251899
:104DC0009C46AD006544072918D80F278B009F40EB
:104DD0006E68BE4317009F403E436E60002A0AD1B2
:104DE0004346002B16D00123114A8B4094462418C9
:104DF000A4006444236180BCB846F0BD0F000F23BB
:104E0000083FBF00BB40AE689E431300BB401E433B
:104E1000AE60E3E70123064A8B4094462418A400C1
:104E200064446361E7E7024B9C4665446E61C5E7F5
:104E30000060004070B504001500002907D10C4B3C
:104E4000984200D070BD0B48FFF7C6FC0100480136
:104E5000290001F007F9084B2038C0001840236CE6
:104E6000DB0703D40422636C1A42FCD1E060E9E75B
:104E70000040084090071800F87F0000036C70B5F0
:104E800004000E00DB0703D40222636C1A42FCD13B
:104E90000A236360656C002DFCD101232364717BC0
:104EA000337B22680B43B17B20000B431C218A43D8
:104EB00013437168B2682360FFF7BCFF3378636007
:104EC000256470BD102283681A42FCD0036CDB0796
:104ED00003D44022436C1A42FCD181627047C04621
:104EE00001230E4A93600E4A91680B420CD00D4983
:104EF0000D48916001689943194301600168994325
:104F0000002301609360704707490A689A431A4377
:104F10000A600A689A430A60F5E7C04600A00C40A0
:104F200000600C40E8AD000024600C4030B50A4B36
:104F30000A4D59682B0000240122002008335835FF
:104F400002E01A685C680833114202D00C4200D1BA
:104F50001043AB42F5D130BD00A00C40007B0000F7
:104F6000002806D0012802D1034BD86870470020E2
:104F7000FCE7014B9868F9E700000840002804D0DE
:104F8000012801D1024B19607047024BFBE7C04674
:104F90000C0008400800084042780378002A01D03D
:104FA000022213438278002A01D004221343014ACB
:104FB0001360704700000840F0B55746DE464E4685
:104FC0004546E0B50B7883B09A46002B01D10233F9
:104FD000436000234362CA784F78120491468A796D
:104FE0004E7A92029046CA798B78120294460A7AD7
:104FF0001B0693467A1E9741721E96418A7ABF011C
:10500000541EA24152010092CA7AF601541EA241D6
:10501000140101940D7B0C796A1E9541621E944126
:105020004A79ED00511E8A4149460B4359460B43CC
:1050300041460B4361460B431F43009B3E431E43C7
:10504000019B64031E435346354312072C432243FE
:105050000260002B01D00123436003B0F0BCBB46CB
:10506000B246A946A046F0BD0223436000230E4A83
:105070000360C36082610D4A0362C26188220C49E9
:10508000436203634363C36303644364C3640365AC
:105090004365C36581500367793A43678367C36794
:1050A0008433C2507047C04673070000FFFF000002
:1050B00080CE0000CA430A2352001340C360C1607F
:1050C0007047C0462B4B70B5C36000232A4A03606B
:1050D00042602A4A83604361C3648264284A0400B0
:1050E0000D004365904204D0264A904201D083656A
:1050F00003E02365A3650023E3650122298A236871
:105100001143AA7B0B43501E82419202134323603A
:105110002A7D2368002A02D080229205134323604F
:10512000AB7C002B03D01022EB7C1343A3658023C0
:105130002A7B5B0168681343AE686360002815D062
:105140000138710000F08EFF000260616B7B002B64
:1051500001D01023E3606B7D002B04D080232268F4
:105160005B02134323602B78E36070BD0648FFF7B2
:1051700033FBE5E7AA0E000005100000F91F000050
:1051800000C0004000C40040408104000C4B0D4AA8
:10519000C3600023036042600B4A83604361C364C1
:1051A00082640A4A4365904204D0094A904201D081
:1051B000836503E0036583650023C3657047C046CC
:1051C000AA0E000005100000F91F000000C00040FA
:1051D00000C4004070B5244B82B06A46009320237F
:1051E0005071137108210023802220251F4EDC0BF3
:1051F0005B009BB2154201D001339BB2002C00D062
:105200007340013952080029F1D18022174D08312D
:10521000DC0B5B009BB2104201D001339BB2002C2F
:1052200000D06B40013952080029F1D110220F48FB
:10523000D90B5B009BB2002900D04340013A92B2E7
:10524000002AF5D16A4693711B0A6C46AA21D371D4
:1052500002AD00E0217806480134FFF733FEAC428E
:10526000F8D102B070BDC046AA55AA552110000061
:10527000004008400D4B30B51B699A0702D501214B
:105280000B4A11705A0702D501210A4A1170DA0738
:1052900009D580200021084A400414685568001987
:1052A000694110605160014A936130BD00000840BF
:1052B000BE000020BF000020D00000208A22034B47
:1052C00052009958083299507047C046006000401B
:1052D00010B50123022205210320FFF75DFD10BD5B
:1052E00010B50023022205210320FFF755FD10BD54
:1052F000F0B50421D6464F4646466C4BC0B5DA6A37
:105300005A63114204D1E0BCBA46B146A846F0BD8A
:10531000674CDD692378EDB2022B5CD00FD8002BEF
:1053200047D0644B644A1D7000231370634A1370A6
:10533000122D5FD0624A137003232370E3E7032B1F
:10534000E1D15E490A78531CDBB20B705D498C4693
:105350008D54022BD7D1574B082718788022002371
:10536000594DD90B5B009BB2104201D001339BB267
:10537000002900D06B40013F5208002FF1D1504A64
:1053800012789046002A5DD110224F4DD90B5B0058
:105390009BB2002900D06B40013A92B2002AF5D1AD
:1053A000624612889A4233D00023484A2370137011
:1053B000A9E7464A1678032E21D8454F731CDBB265
:1053C0001370BD55042B9ED1424B3A689A429AD134
:1053D0000123237097E738490A78531CDBB20B701E
:1053E0003D498D54364A12789A4200D08BE7032308
:1053F000237088E7324B19700223237083E7344F00
:1054000003223800791C01F062FA3300FD70D9E7FD
:105410000300103BDAB2012A2FD91228C4D12F4B36
:105420005D682D4B280019688B0D8A020021121A25
:105430008B412B490A604B602A4B1878C0B2FFF7AA
:10544000C9FEB1E7244A92461F4A914652460821B6
:10545000D65D8022DD0B5B009BB2164201D001338A
:105460009BB2002D01D04D466B40013952080029F6
:10547000F0D10137B845E9D886E75A425341194D72
:10548000DBB22B702B78042201210520DBB2FFF761
:1054900083FC01222B780021534005200332FFF7C3
:1054A0007BFC2878C0B2FFF795FE7DE700400840FE
:1054B000B6000020BD000020B4000020AE00002097
:1054C000B5000020AC00002021100000BC0000202E
:1054D000B8000020AA55AA55B000002000000840DE
:1054E000D0000020A9000020F0B5DE464E46574609
:1054F0004546E0B5A9B0FFF719FD824E3060FFF7D1
:10550000EFFC0122804B1A64804BDB6C1B0E812B5D
:1055100007D87F4B7F4A80491A60804A13680B4046
:10552000136001217E48FFF741F801217D48FFF714
:105530003DF801217C48FFF739F8012201210020C4
:10554000FFF7CCFA02217948FFF7C4F9FFF7C0FE54
:1055500000F060FD90220320754952008B58012411
:1055600083438B5073480121FFF720F80025052263
:10557000714B13A89A66047045708570FFF70CFD97
:10558000FEF710FEFEF766FE07000020FEF71AFE8B
:10559000FEF760FE0F37B8426D41684B1D70FEF795
:1055A00019FEFEF707FE012304220E210220FFF759
:1055B000F3FB01216248FEF7F9FF06216148FFF77E
:1055C00089F9614D17AB2A00994683CA83C31268D3
:1055D0005E4F1A60E1234A465B02380093604946F9
:1055E000FFF74CFC04225A4B0F217B65BB6B02205A
:1055F0001343BB63C0235B00984680234246554F4C
:10560000DB00BB507E3A3B60FF3A0123FFF7C4FB4F
:1056100001230F220F21022001940094FFF76EFB5B
:1056200040234246BB503B604B4B10A917934B465F
:105630008C461C71354B20341A6C64445B6C110A27
:1056400022706170110C120EE2701A0A23716271DD
:105650001A021B0EE3712923A17029006344120E64
:10566000A27110310322180001F028F914351BAB88
:1056700007CD07C32A6800211A601FA8102201F075
:1056800039F914234A461363344B0B941B68344D89
:1056900002934B46029A27AF5A634A46314B9363B3
:1056A0004B4632682600DA63012400230821802259
:1056B000D80B5B009BB2144201D001339BB200288F
:1056C00000D06B40013952080029F1D1B74202D015
:1056D00034780136EAE710222148D90B5B009BB2EF
:1056E000002900D04340013A92B2002AF5D1494640
:1056F00040328B5210AB1D249C464D46AA21644477
:10570000423533E0C400002000000C40B081E00FBF
:1057100018600C4005000004FFFFFFFEE4800C4011
:1057200040810400008204000023020002001C00EB
:10573000006000408006120000800C40C000002085
:105740009007180003001E00587B0000004008402E
:105750000305000000E100E0AA55AA55C80000209A
:1057600021100000FFFFFF7F21780134AF48FFF7D1
:10577000A9FBAC42F8D10A2401230422012105200F
:10578000FFF70AFB642000F055FC002304220121EE
:105790000520FFF701FB013C642000F04BFC002CCE
:1057A000EAD10123042200210520FFF7F5FAA04BDE
:1057B00000275B6802939846002303939D4B18686B
:1057C00059689B46029A039B80185941830A8A05AF
:1057D0001A4316000490059114A81496159700F02A
:1057E0004DFF8268142113019B1A42681D01ED1AB6
:1057F00013019B1A2D019B00EB1805685D19280009
:10580000133000F02FFC14220023002100F0E2FDF1
:105810002A0006900791002330003900801A994130
:1058200002000B0084490D680698079912184B4135
:105830009C4200DDD9E100D1D4E1921BBB41990229
:10584000049B940D21439C0500239002A20D801A15
:1058500099410D225242D31712184B41002B05DCFF
:1058600000D1E9E10023754A12184B4102980399CF
:1058700012184B411902100E0843190E02900391A1
:1058800000201100FFF77AFB0222A021684C490199
:10589000E369414413430120E361FFF76FFB0422F6
:1058A000E369C02113438022E361654B5201490043
:1058B0005A501A60634B9846002342461370624A5E
:1058C000137000F0AFFB614B1B78002B54D1069393
:1058D000029B039C1A0043461B7822430492DAB2CF
:1058E00092465B4C002B00D181E0049B002B00D042
:1058F0008EE04F4958464B68056846680893002378
:105900000993089A099B5219734115009B05AA0A2D
:105910001A43069B002B05D10420CB698343CB613E
:10592000454B1A604B4B14329A4200D850E1012388
:105930000221464A13703E4AD3698B43D3618022C9
:105940003F4B7F315201FF315A500139FF395A50D4
:10595000BFF34F8FBFF36F8F3F4B1B78DAB20692C6
:10596000002B00D07EE0534606930023424613707E
:10597000364B1B78002B29D0012B00D0B0E10A2434
:105980000123042200210520FFF706FA642000F01D
:1059900051FB0023042200210520FFF7FDF9013C03
:1059A000642000F047FB002CEAD100F03BFBFFF73E
:1059B00085F900212948FEF7F9FD002211001000A9
:1059C000FFF78CF80020FFF731F9FBE70421244AA8
:1059D00013698B43136130BF1C4B1B78002BCBD159
:1059E00043461B78DAB29246002B00D07DE7164B77
:1059F0001B78002BBCD00120FFF7B2FAA0235B017B
:105A0000C1180120FFF7BAFA52460F4B1A70AFE7E0
:105A100001204042C117029A039B12184B4111000A
:105A200019430292039304919FE7C0460040084047
:105A300000000840D0000020C8000020F34F000004
:105A400000E100E0BE000020BF000020CC000020EC
:105A500021100000FEFFFF7FA900002000230200AC
:105A600000ED00E0FFF734FC00F0D4FAFEF79AFBFB
:105A7000FEF7B8FBA14B0700187801235840FEF74A
:105A8000A1FBFEF7E7FB0C90FEF7A4FBFEF792FBF1
:105A900000F04CF900F05AF90A2000F0CBFA1F236D
:105AA0000821974AD3610F3B9361536A0B438021CE
:105AB0005362C901D36A0B42FCD1D369914A9B025C
:105AC0009446914A6344934200D891E0C022002159
:105AD00052018E4800F00EFF8D4B59465B680868F6
:105AE0004968109300231193109A119B12184B418F
:105AF00011009E05930A8A051E43950D00F032F9A8
:105B000000F01CF90123042200210520FFF744F9CD
:105B10000A2000F08FFA0023042219000520FFF765
:105B20003BF94A467B4B27211360022313710B9AE2
:105B3000330A16705370330C360E9370D6702522CC
:105B4000292010AB9B181D70013210AB9B1810AAB6
:105B500052182D0A1D7001311770BBB210AA5218CD
:105B60001B0A13700C9910AA121811708BB22A21FB
:105B700010AA52181B0A13700023013110AA5218E0
:105B80001370013110AA52181833137010AA9446DA
:105B9000093363441D004E46002102270B9308225F
:105BA0008023C80B490089B21F4201D0013189B25C
:105BB000002800D06140013A5B08002AF1D110AA08
:105BC0002D2394466344AB423AD02F780135E6E763
:105BD0000020FFF7C5F9A023DB01C1180020FFF763
:105BE000CDF9B9E6954200D827E62A00002324E63D
:105BF00004211120FEF76EFE454B59465B6808688C
:105C000049680E9300230F930E9A0F9B12184B4175
:105C100011009E05930A8A05C0213C4849011E4394
:105C2000950D00F0A7F805211120FEF753FE00F0B6
:105C300099F800F083F874E77F2A00D916E611E698
:105C4000324BAC461D00082280232F78C80B490038
:105C500089B21F4201D0013189B2002800D06140D1
:105C6000013A5B08002AF1D12B4B01359D42EAD164
:105C700065461023CA0B490089B2002A00D0614052
:105C8000013B9BB2002BF5D10B0ACFB20D93AA2199
:105C900000E0317821480136FFF714F9B542F8D118
:105CA0001A4D1D4E29781D480135FFF70BF9B542F5
:105CB000F8D139001948FFF705F90D991748FFF792
:105CC00001F9AF230C9A5B009A4212D3FFF708FB4D
:105CD000134B1B78002B00D045E600F0A3F944E6F7
:105CE000BFF34F8F0F4B104ADA60BFF34F8FC046A0
:105CF000FDE7142000F09EF9E8E7C046C000002050
:105D000000800C408F6506FF1E4E0000000800203A
:105D100000000840AA55AA55002000200040084075
:105D2000CC00002000ED00E00400FA0510B50023CF
:105D3000042200210220FFF72FF810BD10B5002328
:105D4000002200210220FFF727F810BD0221044B9A
:105D50001A680A431A601A6A02310A431A627047C3
:105D600000800C400821024A136A0B4313627047FB
:105D700000800C40F0B5050087B022480E000121DC
:105D8000FEF714FC69460A001F4BAE1991CB91C275
:105D900091CB91C201271D4C1D4B20008B600F75CC
:105DA000FFF790F90023012201210220FEF7F4FF02
:105DB000052120006765FFF77DF9C023E2681B011C
:105DC0001343E360FF236363FEF7ACFEB54208D2E2
:105DD000802223691A42FCD0E3692B700135AE4260
:105DE000F7D1FEF7A3FE0023002201210220FEF7D7
:105DF000D3FF0648FFF7CAF900210248FEF7D6FB99
:105E000007B0F0BD004204008C7B000000C40040DD
:105E100060703E00064880470649074A074B9B1AB8
:105E200003DD043BC858D050FBDCFEF75DF90000F1
:105E30004D5F0000187D000000000020840000205D
:105E4000FEE7C04600487047406F40012A4B2B4A8E
:105E5000DB6A10B5134080229201934218D011D80A
:105E60008022120193423DD0802280205201000204
:105E7000934210D1204B1968C903490F013100F03A
:105E8000F1F810BD8022D204934204D11C48F1E7FE
:105E90001C4B1868EEE7184BD868E023DB0018406D
:105EA00080239B00984224D00FD9C0239B009842A6
:105EB0001DD0154B9C466044431E9841134B4042F5
:105EC0001840134B9C466044D4E700280DD001389D
:105ED000FF38431E98410F4B404218400E4B9C46E2
:105EE0006044C7E70D4B1868C4E70D48C2E70D488A
:105EF000C0E70D48BEE7C04600800C40003C0004EF
:105F000000366E010C00002000FCFFFFC090BFFEB9
:105F1000406F4001C04A9BFF40B56400080000206C
:105F2000804F1200809FD500C0D8A70010B5FFF7A2
:105F30008DFF044B5A680F231340D840024B186062
:105F400010BDC04600800C4004000020014A024BF6
:105F50009A6070470040000000ED00E080200002E1
:105F60007047C046FA2080007047C046014B186851
:105F70007047C0460C00002030B585B004000D22EB
:105F80000D006846002100F0B5FC6B469C70164C75
:105F900069462000FFF710F80123C0208021E56149
:105FA000E26840001A43E260104A11501160104943
:105FB0000B7063600B78002B09D07D380D4AFF38D9
:105FC00013698343136130BF0B78002BF8D1064867
:105FD000FFF74AF88023054AD350BFF34F8FBFF332
:105FE0006F8F05B030BDC0460004014000E100E005
:105FF000D800002000ED00E0044B1B69DA0702D551
:106000000021034A1170014A936170470004014066
:10601000D800002010B501210148FEF7C7FA10BDD5
:106020000012040010B500210148FEF7BFFA10BDB0
:106030000012040010B504000948FEF7CDFBFA2257
:10604000830AD2002000944200D91000FA2158435C
:10605000890000F007F801000A20FFF78DFF10BD4E
:1060600000120400002243088B4274D303098B42C0
:106070005FD3030A8B4244D3030B8B4228D3030C18
:106080008B420DD3FF22090212BA030C8B4202D3BA
:106090001212090265D0030B8B4219D300E0090AE2
:1060A000C30B8B4201D3CB03C01A5241830B8B42EB
:1060B00001D38B03C01A5241430B8B4201D34B03D4
:1060C000C01A5241030B8B4201D30B03C01A524139
:1060D000C30A8B4201D3CB02C01A5241830A8B42BE
:1060E00001D38B02C01A5241430A8B4201D34B02A7
:1060F000C01A5241030A8B4201D30B02C01A52410B
:10610000CDD2C3098B4201D3CB01C01A52418309BE
:106110008B4201D38B01C01A524143098B4201D3F8
:106120004B01C01A524103098B4201D30B01C01A23
:106130005241C3088B4201D3CB00C01A524183089D
:106140008B4201D38B00C01A524143088B4201D3CA
:106150004B00C01A5241411A00D20146524110462A
:106160007047FFE701B5002000F0F0F802BDC0461F
:106170000029F7D076E7704703460B437FD400220F
:1061800043088B4274D303098B425FD3030A8B42CB
:1061900044D3030B8B4228D3030C8B420DD3FF2235
:1061A000090212BA030C8B4202D31212090265D003
:1061B000030B8B4219D300E0090AC30B8B4201D3B6
:1061C000CB03C01A5241830B8B4201D38B03C01AFD
:1061D0005241430B8B4201D34B03C01A5241030B74
:1061E0008B4201D30B03C01A5241C30A8B4201D325
:1061F000CB02C01A5241830A8B4201D38B02C01AD0
:106200005241430A8B4201D34B02C01A5241030A46
:106210008B4201D30B02C01A5241CDD2C3098B422B
:1062200001D3CB01C01A524183098B4201D38B01A8
:10623000C01A524143098B4201D34B01C01A52414B
:1062400003098B4201D30B01C01A5241C3088B4290
:1062500001D3CB00C01A524183088B4201D38B007B
:10626000C01A524143088B4201D34B00C01A52411D
:10627000411A00D201465241104670475DE0CA0FF4
:1062800000D04942031000D34042534000229C46B4
:1062900003098B422DD3030A8B4212D3FC228901BE
:1062A00012BA030A8B420CD3890192118B4208D394
:1062B000890192118B4204D389013AD0921100E0F6
:1062C0008909C3098B4201D3CB01C01A524183090A
:1062D0008B4201D38B01C01A524143098B4201D337
:1062E0004B01C01A524103098B4201D30B01C01A62
:1062F0005241C3088B4201D3CB00C01A52418308DC
:106300008B4201D38B00C01A5241D9D243088B4231
:1063100001D34B00C01A5241411A00D201466346D4
:1063200052415B10104601D34042002B00D5494238
:10633000704763465B1000D3404201B5002000F077
:1063400005F802BD0029F8D016E770477047C0462F
:106350001C2101231B04984201D3000C10391B0A95
:10636000984201D3000A08391B09984201D3000959
:10637000043902A2105C40187047C04604030202B0
:10638000010101010000000000000000002B15D1F8
:10639000002A13D1002906DB01DC002806D00020EA
:1063A000C043410802E080210906002007B40248EA
:1063B00001A14018029003BD95FFFFFF03B468469A
:1063C00001B5029800F034F8019B9E4602B00CBC67
:1063D0007047C046F0B5CE46474680B5070099469F
:1063E0003B0C9C4613041B0C1D000E006146000470
:1063F000140C000C45434B4360436143C0182C0C04
:1064000020188C46834203D980235B029846C444FB
:10641000494679437243030C63442D042D0CC9187B
:10642000000440198918C0BCB946B046F0BDC0464A
:10643000F8B5CE46474680B59146984604000D0013
:1064400000F020F807000E0002000B00484641460D
:10645000FFF7C0FF241A8D41089B380031001C60F3
:106460005D60C0BCB946B046F8BDC04610B5002955
:1064700003D1FFF76DFF203002E00800FFF768FF4F
:1064800010BDC046F0B557464E464546DE46E0B51F
:106490000F001900002306009846100083B0002F5B
:1064A00007DA33003C0000275E42A74101235B422C
:1064B0009846002907DA4346DB430C009846030060
:1064C00000215842A14134003D0082468946B9422C
:1064D0006AD867D049465046FFF7C8FF834639005F
:1064E0003000FFF7C3FF5B461B1A9C46203B9B46D0
:1064F0006BD458465146814060460B00514681405E
:106500000A00BB4200D972E0BB4200D179E03400FE
:106510003D005946A41A9D41002900DA74E000218B
:10652000002001260090019159468E400196614657
:1065300001268E406146009600295FD0D907560893
:106540000E435F086146012200230CE0AF4201D1F7
:10655000A6420AD8A41BBD4124196D410139A418D3
:106560005D41002906D0AF42F0D9013924196D41AF
:106570000029F8D1009801995B4600196941002B68
:106580004DDB2E002C00DE406346DC405B46002BDA
:1065900055DB34009C4023006446A6403200801A3C
:1065A000994103E0B04295D9002000214346002BD9
:1065B00004D003000C0000215842A14103B0F0BCFC
:1065C000BB46B246A946A046F0BD624648462023D7
:1065D000514690409B1AD9400300009100996046B3
:1065E0000B43514681400A00BB4200D88CE7002192
:1065F000002000900191614600299FD100980199E7
:10660000D4E7B142F3D882E7614620260127761A03
:1066100000200021F74000900191019787E7624632
:1066200020239B1A2A009A40260013006246D64077
:106630002C001E436346DC405B46002BA9DA624611
:106640002023350094409B1ADD4023002B43A3E711
:10665000084B10B50400002B02D0002100E000BF61
:10666000054B1868836A002B00D09847200001F082
:106670009BF9C04600000000387C00000B4B70B551
:106680001D680400EB6B002B0AD1242000F00CF9EC
:10669000021EE86304D13921054B064800F0ECF9ED
:1066A000E96B200000F008F870BDC0461000002023
:1066B000A47B0000BB7B0000F0B5066847680023A0
:1066C0003000594A85B00C003900FFF75FFE002307
:1066D000050039003000544AFFF758FE161E00DA54
:1066E00088E0524BE12130000901ED18FFF744FD2D
:1066F000E121A06009013000FFF724FE0E003C21DB
:106700003000FFF739FD3C2160603000FFF71AFED2
:10671000E81C21600721FFF715FE002900DA073188
:10672000A161281E424901DA424BE818FFF724FD17
:10673000070041484149784345192800FFF792FC7A
:106740003F4946192800FFF78DFC3E49361A2800BC
:10675000FFF788FC6E21361A3000FF31FFF782FC0C
:1067600064210190FFF77EFC354902903000FFF76D
:1067700079FC029B0526181A45196E20019BFF30F3
:10678000584333002D1A6B430233992118000293AA
:10679000FFF768FC03909920039B310058430230B7
:1067A000FFF760FC6B1C1B1A9C46029A264B0221C9
:1067B0009A4200D90C39C82040004743039B00206F
:1067C000C918019B9922FF1801238B4240415200B6
:1067D0003F18954212D32B00333BFF3BE3611B4B29
:1067E0002000FF186346E360002367612161236294
:1067F00005B0F0BD0C4BF618154B73E70198154A20
:10680000800706D10220019E5643C64112488642A7
:1068100007D8019B11485A430423DA4100239042D0
:106820005B413B35EB18D9E7805101006CFA0A0057
:10683000B13A020050C5FDFF4FC5FDFFAC8E000010
:10684000B4050000B03A0200F905000094F8FFFF1B
:106850006BFA0A00295C8FC2285C8F020AD7A3005A
:1068600070B500260C4D0D4C641BA410A64209D136
:10687000002601F0A5F80A4D0A4C641BA410A6429C
:1068800005D170BDB300EB5898470136EEE7B30071
:10689000EB5898470136F2E77C0000207C0000208E
:1068A0007C0000208000002010B5034B0100186818
:1068B00000F072F810BDC04610000020002310B593
:1068C0009A4200D110BDCC5CC4540133F8E710B536
:1068D000884202D98B18984203D3002307E08B5CCF
:1068E0008354013AFBD210BDCC5CC45401339A42AC
:1068F000FAD1F8E703008218934200D1704719706B
:106900000133F9E770B50500002910D00C1F23688A
:10691000002B00DAE418280000F0DCF81D4A1368A8
:10692000002B05D163601460280000F0DBF870BD17
:10693000A34208D9216860188342F3D118685B68C4
:1069400041182160EEE71A005B68002B01D0A342DA
:10695000F9D911685018A0420BD1206809185018B5
:1069600011608342E0D118685B6841181160536080
:10697000DAE7A04202D90C232B60D5E72168601822
:10698000834203D118685B684118216063605460DA
:10699000CAE7C046DC000020F8B50323CD1C9D43A8
:1069A000083506000C2D1FD20C25A9421ED8300038
:1069B00000F090F825490A681400002C1AD1244FE1
:1069C0003B68002B04D12100300000F043F8386010
:1069D0002900300000F03EF8431C2BD10C2330007E
:1069E000336000F07FF803E0002DDEDA0C23336023
:1069F0000020F8BD23685B1B19D40B2B03D923603F
:106A0000E418256003E06368A2420ED10B603000F9
:106A100000F068F8200007220B30231D9043C21AB3
:106A20009842E6D01B1AA350E3E75360EFE7220039
:106A30006468C2E70323C41C9C43A042E1D0211A2E
:106A4000300000F007F8431CDBD1C7E7DC00002072
:106A5000E0000020002370B5064D040008002B6004
:106A600000F08CFF431C03D12B68002B00D0236067
:106A700070BDC046E400002030B514001A00094B78
:106A800005001B6885B0D868074B002C01D1074B67
:106A90001C00019300912B000549029400F00AF8B4
:106AA00000F0DAFB100000203C7C0000777C000046
:106AB000497C00000EB403B5010003AB044804CBCD
:106AC0000068019300F03EF802B008BC03B018471C
:106AD0001000002010B5024800F095FD10BDC04622
:106AE000E800002010B5024800F08EFD10BDC04641
:106AF000E8000020936810B5013B9360002B04DA96
:106B00009469A34207DB0A2905D01368581C10605A
:106B10001970080010BD00F0D1FA0100F9E7F8B5CE
:106B200006000F001400D518AC4201D1002007E088
:106B300021783A003000FFF7DDFF0134431CF3D128
:106B4000F8BD0000F0B5A1B006000C001F000392D4
:106B5000002804D08369002B01D100F0B3FC8E4BD8
:106B60009C421CD17468636EDB0705D4A3899B0526
:106B700002D4A06D00F047FDA3891B0702D523694D
:106B8000002B1DD12100300000F0EEFA002817D0B4
:106B9000636EDB070DD50120404221B0F0BD7F4B75
:106BA0009C4201D1B468DEE77D4B9C42DBD1F468A6
:106BB000D9E7A3899B05EED4A06D00F025FDEAE797
:106BC000002308AD6B6120336B761033AB760797EB
:106BD000039F3B78002B01D0252B4ED1039BFB1A42
:106BE0000593039B9F420DD0059B21003000039A23
:106BF000FFF795FF431C00D1B5E06A69059B9446F9
:106C000063446B613B78002B00D1ACE001227B1C1C
:106C10000393002352426A6004A9543252182B6035
:106C2000EB60AB601370AB65039B052219785D4880
:106C300000F058FD039B5F1C002820D12A68D30672
:106C400004D5532304A95B1820211970130704D518
:106C5000532304A95B182B211970039B1B782A2B43
:106C600016D00021EB68039F3A78781C303A8446AE
:106C7000092A4FD9002911D117E00137A9E7494B5B
:106C80002A68C01A0123834013432B600397CBE784
:106C9000079B191D1B680791002B01DB0B9304E078
:106CA0005B42EB60022313432B603B782E2B0AD10F
:106CB0007B782A2B37D1079B02371A1D1B68079256
:106CC000002B2DDB099303223978374800F00AFDA9
:106CD000002807D0344B2A68C01A4023834013434E
:106CE00001372B6039787B1C0622304803932976C4
:106CF00000F0F8FC002845D02D4B002B27D10722AF
:106D0000079B07339343083307936B69049A9B18D7
:106D10006B615DE70A214B4367469B180939A3E77E
:106D200001235B42CEE700231A0001376B603978FC
:106D3000781C30398446092903D9002BC3D0099225
:106D4000C1E70A235A4367465218093BEFE707ABEE
:106D50000093220029003000164B00E000BF049091
:106D6000049B0133D1D1636EDB0705D4A3899B0556
:106D700002D4A06D00F048FCA3895B0600D50AE7A9
:106D80000D980AE707AB0093220029003000094B59
:106D900000F082F8E3E7C046CC7C0000EC7C000009
:106DA000AC7C0000787C00007E7C0000827C0000CF
:106DB000000000001F6B0000F7B5150001938A6802
:106DC0000B690C000090934200DA130022002B6044
:106DD00043321278002A01D001332B6023689B06CE
:106DE00002D52B6802332B602268062317001F4050
:106DF0001A4227D0230043331B785A1E934122683E
:106E0000920630D4220001990098089E4332B04780
:106E1000431C25D0062320682A68E168002503402A
:106E2000042B03D18D1AEB43DB171D40A3682269A5
:106E3000934201DD9B1AED180027BD4220D10020AE
:106E400010E00137E3682A689B1ABB42D2DD2200BA
:106E5000012301990098089E1932B047431CF0D1D4
:106E600001204042FEBD3020E1184331087021006E
:106E70005A1C45310978A218433202331170C1E718
:106E80002200012301990098089E1A32B047431C42
:106E9000E6D00137D1E70000F0B58BB006920A00CA
:106EA00043320793059004920A7E0C00109B782AC7
:106EB00007D8622A09D8002A00D1C1E0582A00D197
:106EC0008CE026004236327022E01000633815282C
:106ED000F7D800F06BFD16001F00F6FFF6FFF6FF77
:106EE000F6FF1F00F6FFF6FFF6FFF6FFA8003600DC
:106EF0009A00F6FFF6FFB900F6FF3600F6FFF6FF40
:106F00009E0026001A684236111D196013683370FE
:106F10000123A7E0086819680A1D05060BD50D684E
:106F20001A60002D03DA2D23049A6D421370614B11
:106F30000A2703931BE00D681A604106F1D52DB2B4
:106F4000EFE70D681968081D18602E0601D50D6859
:106F500003E06D06FBD50D68ADB2564B08270393D1
:106F60006F2A00D002372300002243331A7063686F
:106F7000A360002B03DB0422216891432160002DD4
:106F800002D1049E002B0CD0049E28003900FFF78C
:106F9000EFF8039B013E5B5C33702B0005009F42C2
:106FA000F3D9082F09D12368DB0706D56368226966
:106FB000934202DC3023013E3370049B9B1B236110
:106FC000079B210000930598069B09AAFFF7F4FE92
:106FD000431C4CD1012040420BB0F0BD45310A703A
:106FE000344A03921A68216820CA1A60080616D526
:106FF000CB0702D52023194321601027002DB2D1E1
:10700000202322689A432260ADE7202209680A43C0
:1070100022602200782145321170274AE1E74806B4
:10702000E6D5ADB2E4E71A680D68101D496918602D
:1070300013682E0601D5196002E06D06FBD5198094
:107040000023049E2361BBE71A68111D19601668AE
:1070500000213000626800F045FB002801D0801B51
:107060006060636823610023049A1370A8E72369B2
:10707000320006990598079DA847431CAAD02368AB
:107080009B0715D4099BE0689842A5DA1800A3E78E
:107090002200012306990598079E1932B047431C28
:1070A00098D00135E368099A9B1AAB42F0DCE9E716
:1070B0000025F7E7897C00009A7C0000F8B5050000
:1070C0000E001400002804D08369002B01D100F0C9
:1070D000F9F9224B9C422ED16C68A369A360A38965
:1070E0001B0732D52369002B2FD023682269F7B202
:1070F000981A6369F6B2834205DC2100280000F08B
:107100003FF9002827D1A3680130013BA360236821
:107110005A1C22601F706369834204D0A389DB0775
:1071200007D50A2E05D12100280000F029F90028F2
:1071300011D13000F8BD0A4B9C4201D1AC68CCE7BC
:10714000084B9C42C9D1EC68C7E72100280000F039
:107150000BF80028C9D001267642EAE7CC7C000073
:10716000EC7C0000AC7C0000374B70B51D6806005D
:107170000C00002D05D0AB69002B02D1280000F0D7
:10718000A1F9324B9C420FD16C680C23E25E93B2A2
:1071900011072DD4D90611D40923012033603733C8
:1071A0001343A381404270BD294B9C4201D1AC687E
:1071B000EBE7284B9C42E8D1EC68E6E75B0713D588
:1071C000616B002908D023004433994202D030007B
:1071D000FFF798FB002363632422A3899343A381D1
:1071E00000236360236923600823A2891343A381DA
:1071F0002369002B0BD1A0218022A3898900920052
:107200000B40934203D02100300000F027FA0C22FB
:10721000A35E01201A0099B2024003420FD000225F
:10722000A26062695242A261002022698242BAD100
:107230000A06B8D540221343A3810138B3E7880773
:1072400000D46269A260EFE710000020CC7C00004F
:10725000EC7C0000AC7C0000062010B500F078FA51
:10726000012000F0A1FB0000F7B58B8905000C00A0
:107270001A075FD44A68002A04DC0A6C002A01DC81
:107280000020FEBDE76A002FFAD0002280212E6880
:107290002A601A0049010A400B4234D0606DA3896C
:1072A0005B0706D56368C01A636B002B01D0236CA3
:1072B000C01A0200216A00232800E76AB847A189A2
:1072C000431C06D12B681D2B31D82C4ADA40D3073A
:1072D0002DD50023636023692360CB0405D5431CAF
:1072E00002D12B68002B00D16065616B2E600029F4
:1072F000C6D023004433994202D02800FFF702FB96
:1073000000206063BDE701232800216AB847431CC1
:10731000C5D12B68002BC2D01D2B01D0162B01D15B
:107320002E60ADE74023A2891343A381A9E7402340
:107330000B43FAE70F69002FA2D00A680F60D21B37
:10734000019200229B0700D14A69A260019B002B99
:1073500000DC95E73A002800019B216AA66AB04745
:10736000002806DC40230120A28940421343A38168
:1073700087E7019B3F181B1A0193E7E701004020B4
:107380000B6970B505000C00002B02D10025280008
:1073900070BD002804D08369002B01D100F092F861
:1073A000144B9C421BD16C680C22A35E002BEDD0C9
:1073B000626ED20704D49B0502D4A06D00F023F9BD
:1073C00028002100FFF750FF636E0500DB07DED4C5
:1073D000A3899B05DBD4A06D00F016F9D7E7064B17
:1073E0009C4201D1AC68DFE7044B9C42DCD1EC68E5
:1073F000DAE7C046CC7C0000EC7C0000AC7C0000EE
:10740000002310B5040003604360836081814366FC
:107410001900C28103614361836108225C30FFF778
:1074200069FA054B24626362044BA362044BE36276
:10743000044B236310BDC04691770000B97700006C
:10744000F17700001D78000010B5024900F0BAF88D
:1074500010BDC0468173000070B568254A1E5543B3
:107460000E0029007431FFF797FA041E08D000219E
:107470002A00016046600C30A0606832FFF73AFADB
:10748000200070BD10B5024800F0BDF810BDC04628
:10749000E900002010B5024800F0B6F810BDC04663
:1074A000E900002010B5024800F0ADF810BDC0465C
:1074B000EA00002010B5024800F0A6F810BDC04652
:1074C000EA00002013B50400FFF7ECFFA369002BCE
:1074D00002D0FFF7EFFF13BDA364E3642365134BF2
:1074E000134A1B68A2620193A34201D10123A36145
:1074F000200000F01FF86060200000F01BF8A06082
:10750000200000F017F800220421E0606068FFF717
:1075100077FF01220921A068FFF772FF02221221E2
:10752000E068FFF76DFF0123A361D2E7387C00001C
:1075300049740000F8B50700FFF7A4FF1F4B1E6851
:10754000B369002B02D13000FFF7BCFF4836B468A6
:107550007368013B04D53368002B22D03668F6E708
:107560000C22A55E002D1AD12000154B5830E36087
:10757000656600F047F8FFF78DFF2000082229001C
:107580002560A560656025616561A5615C30FFF7D8
:10759000B1F96563A563A564E5642000F8BD6834AE
:1075A000D7E704213800FFF757FF041E3060D5D11C
:1075B000FFF770FF0C233B60EFE7C046387C00000C
:1075C0000100FFFFF7B504000600002701914834D1
:1075D0006368A5680093009B013B009304D5246871
:1075E000002CF5D13800FEBDAB89012B08D90E2245
:1075F000AB5E013304D029003000019B984707435C
:107600006835E8E7704770477047000070B50E00B6
:107610001D000E23C95E140096B0002908DA0C2262
:10762000B35E00222A601B0611D48023DB000FE02A
:107630006A4600F01FF90028F1DBF02301991B02D4
:107640001940054BC9184B4259412960EDE74023C9
:107650000020236016B070BD00E0FFFFF7B50226E2
:107660008B8905000C00334206D02300473323608A
:10767000236101236361F7BD6A4601ABFFF7C6FFD3
:10768000009907002800FFF787F9002808D10C228D
:10769000A35E9A05EFD4032293431E43A681E4E739
:1076A0000F4BAB628023A28920601343A381009B10
:1076B00020616361019B002B0DD028000E23E15E49
:1076C00000F0EAF8002806D00322A38993431A00A9
:1076D00001231343A381A0890743A781CBE7C046B9
:1076E00049740000C9B28218904201D1002070474D
:1076F00003788B42FBD00130F6E770B504000D0033
:107700001F2904D9162303600120404270BD436C39
:10771000002B04D08A009B181A68002A08D1200088
:1077200000F032F82A000100200000F01BF8EDE71D
:107730000020012AEAD0511C03D116230130236016
:10774000E4E7002428001C6090472000DEE70000EA
:1077500010B5034B01001868FFF7CFFF10BDC046FE
:1077600010000020002370B5064D04000800110031
:107770002B6000F0EBF8431C03D12B68002B00D0EA
:10778000236070BDE400002010B500F0CFF810BDFC
:1077900070B50C000E25495F00F0A4F8002803DB4B
:1077A000636D1B18636570BDA389024A1340A381F2
:1077B000F9E7C046FFEFFFFFF8B51F008B89050012
:1077C0000C001600DB0505D50E23C95E002202233E
:1077D00000F074F8A389054A28001340A381320001
:1077E0000E23E15E3B0000F01FF8F8BDFFEFFFFF46
:1077F00070B50C000E25495F00F060F8A389421CAB
:1078000003D1054A1340A38170BD80225201134366
:10781000A3816065F8E7C046FFEFFFFF10B50E23B8
:10782000C95E00F015F810BD70B504000800110025
:107830001A000023054D2B6000F0AEF8431C03D165
:107840002B68002B00D0236070BDC046E4000020F0
:10785000002370B5064D040008002B6000F056F8B8
:10786000431C03D12B68002B00D0236070BDC046A1
:10787000E4000020002370B5064D0400080011004C
:107880002B6000F04BF8431C03D12B68002B00D079
:10789000236070BDE4000020002370B5064D040095
:1078A00008002B6000F04AF8431C03D12B68002B22
:1078B00000D0236070BDC046E400002070B5040015
:1078C000080011001A000023054D2B6000F046F857
:1078D000431C03D12B68002B00D0236070BDC04631
:1078E000E400002070B50400080011001A00002315
:1078F000054D2B6000F03AF8431C03D12B68002B98
:1079000000D0236070BDC046E40000205822012052
:10791000014B40421A607047E400002058220120C9
:10792000014B40421A607047E400002058220120B9
:10793000014B40421A607047E40000205822024B7D
:1079400000201A607047C046E40000205822012041
:10795000014B40421A607047E40000205822012089
:10796000014B40421A607047E40000205822012079
:10797000014B40421A607047E4000020044A0300B3
:107980001068002802D0C318136070470148FAE756
:10799000EC000020F000002058220120014B404262
:1079A0001A607047E4000020FEE7C04603B4714649
:1079B000490840004900095E49008E4403BC7047F5
:1079C000F8B5C046F8BC08BC9E467047F8B5C0463E
:1079D000F8BC08BC9E46704701B40248844601BC0E
:1079E000604700BF750000202E4300002A430000BE
:1079F0000E430000E2420000FA420000FA4200009A
:107A000000430000D2450000D4450000DC450000E2
:107A1000E4450000D2450000D2450000EC450000DE
:107A2000044600000E460000D2450000BE4500009E
:107A3000FC4600007C460000E8460000A846000026
:107A4000D2460000FC4600005046000054460000AC
:107A50001049000052490000F44900001C4A00008F
:107A600010490000104900000C4A000010490000B5
:107A700010490000104900001049000010490000A2
:107A80006E4900001049000010490000924A0000B1
:107A90008A4A0000824A0000324A00001049000071
:107AA0001049000010490000104900001049000072
:107AB0009E4A0000030206000900000007000000C3
:107AC0000300000001000000050000001600000097
:107AD0000001000040000000040000000100000060
:107AE0001000000000040000000200008000000000
:107AF0000800000002000000200000000008000054
:107B000001000000000000000200000081000000F1
:107B100004000000910000000800000001000000C7
:107B2000100000000300000020000000DFEF000054
:107B3000400000009FEF00008000000019070000D7
:107B40000001000019060000000200001F040000F0
:107B5000000400001F0200000500000000000000FB
:107B6000802500000000000000010000536E6170DD
:107B70007065724750532D5541525400000000006B
:107B800000000000000000000000000005000000F0
:107B90000000000040420F0005010000000000004E
:107BA000000000005245454E54206D616C6C6F63BF
:107BB00020737563636565646564002F6D6E742F53
:107BC000776F726B73706163652F776F726B737011
:107BD0006163652F4743432D31302D706970656CAB
:107BE000696E652F6A656E6B696E732D4743432D11
:107BF00031302D706970656C696E652D34385F3277
:107C0000303230313132345F31363036313830361F
:107C100034312F7372632F6E65776C69622F6E65D6
:107C2000776C69622F6C6962632F74696D652F6769
:107C30006D74696D652E6300140000202C2066753C
:107C40006E6374696F6E3A20006173736572746954
:107C50006F6E2022257322206661696C65643A206C
:107C600066696C6520222573222C206C696E652064
:107C70002564257325730A00232D302B2000686CA2
:107C80004C0065666745464700303132333435363F
:107C90003738394142434445460030313233343578
:107CA00036373839616263646566000000000000A1
:107CB00000000000000000000000000000000000C4
:107CC00000000000000000000000000000000000B4
:107CD00000000000000000000000000000000000A4
:107CE0000000000000000000000000000000000094
:107CF0000000000000000000000000000000000084
:107D00000000000000000000000000000000000073
:087D1000CCC3FF7F010000005D
:107D1800006CDC02809FD50080C1F9000080000063
:107D28001400002000000000CC7C0000EC7C000067
:107D3800AC7C000000000000000000000000000013
:107D4800000000000000000000000000000000002B
:107D5800000000000000000000000000000000001B
:107D6800000000000000000000000000000000000B
:107D780000000000000000000000000000000000FB
:107D88000000000030BF04231B687047BD4000009E
:047D98009540000012
:0400000300005E1586
:00000001FF
